:0800000000800020A9060000A9
:100008000000000000000000012313FA01F1416024
:100018007047012313FA01F18160704730B501245C
:1000280014FA01F100F1080581600DE000BF013C00
:10003800002CFBD141601C4601E000BF013C002CB4
:10004800FBD1013A2960D2B20AB11C46F0E730BDB3
:100058000A4901234FF0FF3203F1200041F8202024
:1000680003F160000133082B41F82020F4D1044B40
:100078001A6822F001021A60704700BF00E100E030
:1000880010E000E0164B00221A60164A02231360A3
:10009800154AA5211160DD211160144A1360144B23
:1000A8004FF000421A601A60124A4FF6FF7313604D
:1000B80042F8443C42F8243CC2F8A030D365D367E8
:1000C800C2F84031C2F8FC30C2F81C31A3F5004335
:1000D800C2F88032C2F83C32C2F85C32704700BFC6
:1000E80020D0024034D002403000034024D00240E7
:1000F80044A00240E8A00240054A4FF000431360C4
:1001080042F8103C0123C2F82033C2F8003370478C
:1001180044A00240036804481840A0F10053584224
:1001280040EB0300704700BF0000FE2F10B50446E7
:10013800FFF7A8FF6368226882F30888984710BD14
:10014800024B40221A6000BFFDE700BF60D00240AA
:10015800034B1870703B1A6E12F4E02FFBD17047F6
:10016800703000400146002341F6573203E0104644
:100178000138FDD801338B42F9D17047174B4FF640
:10018800FF721A60A2F50042C3F840213022C3F87A
:100198004421A3F5E8734FF480321A601022C3F8A3
:1001A800202303F54873202203F533531A600C4AC1
:1001B8000C4B0D4913600D4B196044F21871116016
:1001C80040F20D321A604FF000625A614FF055123A
:1001D800DA644FF080221A63704700BF14A202400D
:1001E8000830004000001A4700000D0304300040AA
:1001F8007047114B4FF480221A604FF0004103F50D
:10020800805319600421A3F5FD5319600B4BA521F8
:10021800C3F8C010F221C3F8C0100021C3F8A00031
:10022800C3F8B0105A21C3F8C01005490A601A680B
:10023800D202FCD4704700BF04E0024000E0024054
:1002480008E00240144B10B54FF000441C60042431
:10025800A3F5FD531C60114BA524C3F8C040F2243C
:10026800C3F8C040C3F8A000186810F48010FBD190
:1002780003460A4808E031F8024BC0F8B040046869
:1002880014F4002FFBD101339342F4D1034B5A22CB
:10029800C3F8C02010BD00BF04F0024000E00240D7
:1002A800044B4FF080421A60034B1A6842F0470231
:1002B8001A60704724D0024000E002402DE9F04F58
:1002C800A44CADF5986DA30581B04FEA935BA50AE0
:1002D80003B10135FFF752FFFFF7E2FF0022AD023D
:1002E800DFF87C92DFF884C242F210719A4B9B4F80
:1002F8001046062618E030460138FDD80132B2FB18
:10030800F1FA01FB1A2A624594BF00200120BAF1D4
:10031800000F09D1D3F800A06FEA0A0A1FFA8AFA77
:100328004AF4803AC7F800A0D9F860A01AF0070F7D
:1003380001D10028DFD0431C012B40F0AB81A40A77
:10034800621C0026A4029202BBF1000F0CBFA24659
:1003580092462F46B346B14634460022012B114639
:1003680003D07F48036E5B07FBD07E4B1B78062AC1
:1003780041D8DFE802F0040A161D242F3C001B2B8D
:1003880008BF012208BF9B46EBE7012B02D0B3420E
:1003980040F07E8183EA0B0B5FFA8BFB1E4602223C
:1003A800DFE783EA0B0B19025FFA8BFB0322D8E71E
:1003B80083EA0B0B19435FFA8BFB0422D1E70E2B60
:1003C80040F066818BF00E0B5FFA8BFB05224FF035
:1003D8000009C6E704A800F8093083EA0B0B09F105
:1003E80001095FFA8BFB894508BF0622B9E75B451F
:1003F80040F04E8101E0072AB3D19DF81020531E2A
:100408001C2B00F20781DFE813F04A00D1006900D5
:100418000501050192000501050105010501050118
:100428000501050105010501D100D1008E00B300C9
:10043800D400B300D40005018600050186007800C9
:1004480005011D009DF81430302B09D19DF81620A8
:1004580082B1012A14BF4FF001084FF0980810E04C
:1004680013F0500209D0502B09D0582B08BF4FF079
:10047800800806E04FF01E0803E0904601E04FF0C8
:1004880000088DF813308DF811408DF812408DF862
:1004980014408DF815808DF816400723BEE0082318
:1004A8008DF8123041238DF8133056238DF814300F
:1004B80052238DF8153049238DF8163053238DF8C3
:1004C800173050238DF818305F238DF819303223F8
:1004D8008DF81A308DF811400B239FE09DF81130EC
:1004E8008DF811407033DBB2022B9ABF1E4AD35CE1
:1004F80000238DF81230032390E09DF8143023B1C7
:10050800012B14BF0123982300E01E238DF811400E
:100518008DF8123003E08DF811408DF812408DF8F7
:10052800134004237AE08DF81140574675E09DF892
:1005380012509DF811302D0445EA03659DF81430DA
:100548001D439DF8133045EA03256D0025F000454D
:100558002CE000BF5707000020A302402CA3024054
:10056800003000407030004040070000801A06004C
:10057800132A9DF811309DF812B017D1574509D3A9
:10058800B7F5802F06D238460193FFF732FE019B5C
:1005980007F5806755454BEA032B06D30DF11A0181
:1005A8004FEA5B022846FFF74DFE5D448DF8114087
:1005B80033E09DF811109DF812308DF8114043EA90
:1005C8000121CB1C142A19D105AA4FF0FF0EB5F84A
:1005D80000C055451FFA8CFC104604D202F802EC04
:1005E80002F801EC05E002F802CC4FEA1C2C02F8F4
:1005F80001CC023502320239E9D109E00A460DF18F
:100608001200013A00F8014BFBD10DF1120040181D
:10061800047003E0C0238DF8113002231B200193DE
:10062800FFF796FD3046FFF793FD019BC3F3072BB9
:100638005846FFF78DFD019BDAB210460292FFF78C
:1006480087FD0E20FFF784FD86F01501029AC9B2D6
:100658004A4082EA0B0B04A9019B0FE011F8012B19
:100668000193104603910292FFF772FD029A019BD3
:1006780082EA0B0B03995FFA8BFB013B002BEDD150
:10068800584601360193F6B2FFF762FD019B64E616
:10069800002266E631B00DF5806DBDE8F08F00BF31
:1006A80070B5204B20490AE01D685C6898680022F4
:1006B8000C3302E05659165104328242FAD38B4267
:1006C800F2D309E01D685C680022083301E051514B
:1006D8000432A24202D2FAE7144800218342F1D33D
:1006E800134CFFF7CFFCFFF707FDFFF7B1FCFFF74F
:1006F800E5FDA3059D0DA00A03B101308002FFF7B7
:1007080009FD28B1A00A05B101308002FFF70EFDEE
:100718000848002105224FF4A023FFF77FFCFFF7CC
:100728000FFD70BD430700004F070000570700008A
:100738005707000020A302400F020A5807000000D4
:0F07480000002000000000000000200000000062
:0400000300000008F1
:00000001FF
